{
    "contractName": "Counter",
    "abi": [
        {
            "anonymous": false,
            "inputs": [
                {
                    "indexed": false,
                    "internalType": "uint256",
                    "name": "newNumber",
                    "type": "uint256"
                }
            ],
            "name": "NumberDecremented",
            "type": "event"
        },
        {
            "anonymous": false,
            "inputs": [
                {
                    "indexed": false,
                    "internalType": "uint256",
                    "name": "newNumber",
                    "type": "uint256"
                }
            ],
            "name": "NumberIncremented",
            "type": "event"
        },
        {
            "anonymous": false,
            "inputs": [
                {
                    "indexed": false,
                    "internalType": "uint256",
                    "name": "newNumber",
                    "type": "uint256"
                }
            ],
            "name": "NumberSet",
            "type": "event"
        },
        {
            "inputs": [],
            "name": "decrement",
            "outputs": [],
            "stateMutability": "nonpayable",
            "type": "function"
        },
        {
            "inputs": [],
            "name": "increment",
            "outputs": [],
            "stateMutability": "nonpayable",
            "type": "function"
        },
        {
            "inputs": [],
            "name": "number",
            "outputs": [
                {
                    "internalType": "uint256",
                    "name": "",
                    "type": "uint256"
                }
            ],
            "stateMutability": "view",
            "type": "function"
        },
        {
            "inputs": [
                {
                    "internalType": "uint256",
                    "name": "newNumber",
                    "type": "uint256"
                }
            ],
            "name": "setNumber",
            "outputs": [],
            "stateMutability": "nonpayable",
            "type": "function"
        }
    ],
    "bytecode": "608080604052346015576101dc908161001a8239f35b5f80fdfe6080806040526004361015610012575f80fd5b5f3560e01c9081632baeceb71461010c575080633fb5c1cb146100c95780638381f58a146100ad5763d09de08a14610048575f80fd5b346100a9575f3660031901126100a9575f545f19811461009557602060017f209c6035516d19d8e68fcdb2bf5bd0a95b70e35f6ca85925c34b9cdfdd7139609201805f55604051908152a1005b634e487b7160e01b5f52601160045260245ffd5b5f80fd5b346100a9575f3660031901126100a95760205f54604051908152f35b346100a95760203660031901126100a9577f9ec8254969d1974eac8c74afb0c03595b4ffe0a1d7ad8a7f82ed31b9c85425916020600435805f55604051908152a1005b346100a9575f3660031901126100a9575f54908115610158577fbad136607945e6d9a17279e7185ec9db741dda16b98375b35aff04d51f96db8f6020835f1901805f55604051908152a1005b62461bcd60e51b8152602060048201526024808201527f436f756e7465723a2063616e6e6f742064656372656d656e742062656c6f77206044820152637a65726f60e01b6064820152608490fdfea2646970667358221220c7110c91e52a18c8ee67f2b729fe607ea52d3d36f8125bbe750ae266b7d9b13e64736f6c634300081e0033",
    "sourcePath": "/Users/car/Work/2025beginAgain/final_token_bank/contracts/Counter.sol",
    "compiler": {
        "name": "solc",
        "version": "0.8.30+commit.73712a01"
    },
    "functionHashes": {
        "decrement()": "2baeceb7",
        "increment()": "d09de08a",
        "number()": "8381f58a",
        "setNumber(uint256)": "3fb5c1cb"
    },
    "gasEstimates": {
        "creation": {
            "codeDepositCost": "95200",
            "executionCost": "147",
            "totalCost": "95347"
        },
        "external": {
            "decrement()": "25400",
            "increment()": "25465",
            "number()": "2299",
            "setNumber(uint256)": "23296"
        }
    }
}